:1000000000180020C1000000391E0000051E00007D
:10001000051E0000051E0000051E0000051E000054
:10002000051E0000051E0000051E0000391E000010
:10003000391E0000051E0000391E0000F51D0000DD
:10004000391E0000391E0000391E0000391E000054
:10005000391E0000391E0000391E0000391E000044
:10006000391E0000391E0000391E0000391E000034
:10007000A523000031280000992D0000391E000042
:10008000391E0000391E0000391E0000391E000014
:10009000391E0000391E0000391E0000391E000004
:1000A00041160000391E0000391E0000391E0000F4
:1000B000391E0000391E0000391E0000391E0000E4
:1000C00038B501F0BDFE454A454B1A60454A464BDE
:1000D0001A60464A464B1A60464B0822197811426C
:1000E00002D019780A431A70434B2A221A7000234F
:1000F000424A43499A188A4204D24249C9580433B1
:100100001160F5E7404B41491A1F181D00238A4230
:1001100002D21360031CF6E73D493E4A5958101CB1
:1001200099500433C02BF7D100239A083A49920022
:10013000521803211940C9001568FF248C40A543BB
:100140002C1C80258D40291C214301331160202B5C
:10015000EBD1324B8A221860314B1A70314B24227A
:100160005A70A0221A709A799107FCD59A79D5060F
:10017000FCD498790C212B4A01400829F9D103219C
:100180001171402151719A799106FCD59A795506E1
:10019000FCD52549254A1160224A20211170997900
:1001A0000C220A400C2AFAD1214A224B1A60224A18
:1001B000224B1A60224B00221A60224B07221A603F
:1001C000214A224B1A6062B601F014F904F086F855
:1001D00001F03CFE01F0E7FDFEE7C046300004F010
:1001E00034800440823F0000388004400100000F4A
:1001F0003C80044002D0074000E00740C0000020DF
:100200004003002000470000440300206007002056
:100210000000000000F9FF1F00E400E008ED00E02E
:100220000050064000400640000001104480044099
:10023000C0000505048004407FBB000014E000E01E
:1002400018E000E010E000E00000202020ED00E0D9
:10025000FFFFFFFFFFFFFFFFFFFFFFFFFFFFFFFFAE
:10026000FFFFFFFFFFFFFFFFFFFFFFFFFFFFFFFF9E
:10027000FFFFFFFFFFFFFFFFFFFFFFFFFFFFFFFF8E
:10028000FFFFFFFFFFFFFFFFFFFFFFFFFFFFFFFF7E
:10029000FFFFFFFFFFFFFFFFFFFFFFFFFFFFFFFF6E
:1002A000FFFFFFFFFFFFFFFFFFFFFFFFFFFFFFFF5E
:1002B000FFFFFFFFFFFFFFFFFFFFFFFFFFFFFFFF4E
:1002C000FFFFFFFFFFFFFFFFFFFFFFFFFFFFFFFF3E
:1002D000FFFFFFFFFFFFFFFFFFFFFFFFFFFFFFFF2E
:1002E000FFFFFFFFFFFFFFFFFFFFFFFFFFFFFFFF1E
:1002F000FFFFFFFFFFFFFFFFFFFFFFFFFFFFFFFF0E
:10030000FFFFFFFFFFFFFFFFFFFFFFFFFFFFFFFFFD
:10031000FFFFFFFFFFFFFFFFFFFFFFFFFFFFFFFFED
:10032000FFFFFFFFFFFFFFFFFFFFFFFFFFFFFFFFDD
:10033000FFFFFFFFFFFFFFFFFFFFFFFFFFFFFFFFCD
:10034000FFFFFFFFFFFFFFFFFFFFFFFFFFFFFFFFBD
:10035000FFFFFFFFFFFFFFFFFFFFFFFFFFFFFFFFAD
:10036000FFFFFFFFFFFFFFFFFFFFFFFFFFFFFFFF9D
:10037000FFFFFFFFFFFFFFFFFFFFFFFFFFFFFFFF8D
:10038000FFFFFFFFFFFFFFFFFFFFFFFFFFFFFFFF7D
:10039000FFFFFFFFFFFFFFFFFFFFFFFFFFFFFFFF6D
:1003A000FFFFFFFFFFFFFFFFFFFFFFFFFFFFFFFF5D
:1003B000FFFFFFFFFFFFFFFFFFFFFFFFFFFFFFFF4D
:1003C000FFFFFFFFFFFFFFFFFFFFFFFFFFFFFFFF3D
:1003D000FFFFFFFFFFFFFFFFFFFFFFFFFFFFFFFF2D
:1003E000FFFFFFFFFFFFFFFFFFFFFFFFFFFFFFFF1D
:1003F000FFFFFFFFFFFFFFFFFFFFFFFFFFFFFFFF0D
:10040000FFFFFFFFFFFFFFFFFFFFFFFFFEFFFFFFFD
:1004100010B5064C2378002B07D1054B002B02D0DA
:10042000044800E000BF0123237010BD40030020FA
:10043000000000000047000008B5084B002B03D067
:100440000748084900E000BF07480368002B03D0B5
:10045000064B002B00D0984708BDC04600000000A6
:10046000004700004403002040030020000000007B
:10047000F8B5202000F08EFE0C2000F061FEFC2478
:10048000314F324E324D334880235B01A405436027
:100490007B6073606B60211C00F075FD381C211CB3
:1004A00000F071FD301C211C00F06DFD281C211C8A
:1004B00000F069FD0020022100F01AFF0120022156
:1004C00000F016FF0220011C00F012FF03200221A1
:1004D00000F00EFF0420022100F00AFF0520022197
:1004E00000F006FF0620022100F002FF0720022193
:1004F00000F0FEFE0820022100F0FAFE0920022191
:1005000000F0F6FE0A20022100F0F2FE0B2002218C
:1005100000F0EEFE0C20022100F0EAFE0E20002189
:1005200000F0E6FE0F20002100F0E2FE1020002186
:1005300000F0DEFE0021112000F0DAFEFA2080003B
:1005400000F03EFFF8BDC046100400204804002023
:1005500080040020D8030020F0B50C2091B000F0FA
:10056000B5FE002803D1A249A24A08701070A24B20
:100570001B78002B14D0A14C201C00F0F9FCA04DDE
:10058000281C00F0F5FC9F4E301C00F0F1FC9E4F43
:10059000381C00F0EDFCE46AED6AF66AF86A0EE0D9
:1005A0000E2000F021FE041C0F2000F01DFE051C93
:1005B000102000F019FE061C112000F015FE934BD0
:1005C0001B78002B3CD0924B196805918C420AD0C5
:1005D0005A68944207D099688C4204D09A60059A70
:1005E0001C605A6005948B4B1F68BD4208D05A6846
:1005F000954205D099688D4202D09A60A0C32F1C05
:10060000854B1A68049296420AD05A68964207D0DF
:1006100099688E4204D09A60049A1E605A600496CB
:100620007E4B1968039188420ED05A6890420BD0D5
:100630009968884208D09A60039A039005C303E042
:10064000039004962F1C0594754C059923689942D4
:1006500011DD9F4232DD664A1378002B2ED071499E
:10066000714A0B68002B11D012689A4226D9604952
:1006700000230B7022E09F4220DC5D4A1378002BA0
:100680001CD16849684A0B68002B05D11368674A7A
:100690001268D3180B6011E012689A420ED95449BF
:1006A000012306200B7000F011FE002800D1E3E1C9
:1006B000072000F00BFE002800D1DDE12368049A3A
:1006C0009A4210DD0399994225DD4A490A78002AA9
:1006D00021D0574854490268002A10D00968914235
:1006E00019D9002215E0039A9A4214DC41490A788C
:1006F000002A10D14E484C490268002A05D10A68E8
:100700004A4909688A18026005E00968914202D9DD
:10071000012238490A70474A1278002A04D0344925
:1007200000220A7033490A70059A9A420CDD9F42F2
:1007300010DD2F490A78002A0CD13A4A11680029A5
:1007400008DD0021116005E09F4203DC28490A789A
:10075000002AF2D1049A9A420DDD0399994211DDE3
:10076000244A1378002B0DD1314B1968002909DD7B
:1007700000221A6006E0039A9A4203DC1D490B78B6
:10078000002BF1D11A4A2C4D1478261E15D02B4B74
:10079000FA2419682A4BE4011A680598231C00956D
:1007A00001F0F6FA274B061C1968274B381C1A680B
:1007B00000942B1C01F0ECFA041C0E4B1878002856
:1007C0004CD0224BFA271968214BFF011A68049874
:1007D0003B1C009501F0DCFA1E4B049019681E4B7F
:1007E00003981A680097144B01F0D2FA37E0C0461C
:1007F000D5030020D6030020D4030020D803002016
:10080000100400204804002080040020C0000020C4
:10081000C0040020CC040020D8040020E404002000
:10082000DC000020B8040020FC040020D4000020DC
:10083000BC040020D80000200083FFFFCC03002070
:10084000C4000020D0030020C8000020F0040020D5
:10085000CC000020F4040020D00000200490FA23F3
:10086000DB019E4200DD1E1CAE4200DA854E9C423A
:1008700001DDFA24E4010594AC4201DA81490591D5
:10088000049AFA23DB019A4200DD1A1C0392AA4261
:1008900001DA7C4A0392984201DDFA20C0010490FB
:1008A000A84201DA774B0493774F059932B20BB225
:1008B000381C122100F088F9039B04991AB2381CE5
:1008C0000BB2132100F080F9002000F0FFFC0A9029
:1008D000012000F0FBFC0890022000F0F7FC0990DA
:1008E000032000F0F3FC0B90042000F0EFFC0690D6
:1008F000052000F0EBFC0790062000F0E7FC051C4B
:10090000072000F0E3FC041C082000F0DFFC0C9042
:10091000092000F0DBFC0D900A2000F0D7FC0E90BF
:100920000B2000F0D3FC594B0F901B78002B40D1CB
:100930000699381C4B424B410799DBB206934B4258
:100940004B41DBB207936B425D4163425C41EDB2C8
:10095000E4B2079A009406992B1C00F018F9069A45
:10096000002A02D0FA23DB010593079B002B01D05C
:1009700044490591002D00D0424E002C01D0FA26AA
:10098000F601059932B20BB2381C122100F01CF9A5
:100990000C99381C4A424A41D2B2012100F0A8F811
:1009A000381C0221069A00F0A3F8381C0321079A8C
:1009B0000BE06A426A41D2B2381C052100F098F877
:1009C00062426241D2B2381C062100F091F8304BED
:1009D0002D4C1B78002B24D10B9A002A02D1FA232C
:1009E000DB0104930A9B002B01D126490491099A4B
:1009F000002A01D1234B03930899002902D1FA253B
:100A0000ED010395039B04991AB2201C0BB213212C
:100A100000F0DAF80D99201C4A424A41D2B2042172
:100A20000DE00999201C4A424A41D2B2072100F048
:100A30005FF80899201C4A424A41D2B2082100F0CE
:100A400057F80F99381C4A424A41D2B20A2100F0A5
:100A50004FF80E99381C4A424A41D2B2092100F09F
:100A600047F8381C00F03EF9381C00F0BFF8381C7D
:100A700000F08EF911B0F0BD064B01211A784A4002
:100A80001A701BE60083FFFF5C030020D5030020E3
:100A9000D6030020D403002010B50F4C0E21231CD8
:100AA00000220E4800F085FA231C0F2100220C487A
:100AB00000F07FFA231C102100220A4800F079FA86
:100AC000231C11210022084800F073FA01210D2295
:100AD000064800F0B1F810BD0AD7233CD803002027
:100AE0001004002048040020800400205C03002043
:100AF000012902D1C378102142E0022902D1C37832
:100B000020213DE0032902D1C378402138E00429A7
:100B100009D1C378002A03D080225242134334E023
:100B20007F22134031E0052902D1C378012127E05B
:100B3000062902D1C378022122E0072901D14021F0
:100B400012E0082909D18378002A03D0802252427A
:100B500013430FE07F2213400CE0092901D110213B
:100B600002E00A2908D120218378002A01D00B4312
:100B700000E08B43837009E00B2907D1C37804217F
:100B8000002A01D00B4300E08B43C370704770B55F
:100B900004AC257884780F26B443002901D00122C3
:100BA00002E0002A01D0022214438470002B04D0FA
:100BB000002D08D18378042203E0002D03D0837830
:100BC00008221343837070BD122906D1827103720B
:100BD00012121B12C271437207E0132905D18272EF
:100BE000037312121B12C2724373704710B505498A
:100BF000041C01F09DF802230022E25401330D2B66
:100C0000FAD110BD28320000F8B5071C061C0D1CD7
:100C1000141C64376536012909D1101C00F068FBEB
:100C2000201C002100F032FB3D70347002E00023F4
:100C30003B703370F8BDFFFFF0B5142585B0041C80
:100C40000291039200212A1C03F077FB0A266570AB
:100C500001220025201CA270291C321C6561A5619F
:100C6000257765771E3003F068FB1D4F201C391C6B
:100C7000321C283003F058FB231C3233291C321C51
:100C8000181C019303F059FB019A0123201C1370D7
:100C9000B919321C3C3003F047FB201C391C321CB4
:100CA0001431463003F040FB391C201C321C1E312D
:100CB000503003F039FB201C291C321C5A3003F041
:100CC0003CFB231C64331D705D709D70201CA56669
:100CD00002991D72039AFFF797FF201C05B0F0BD23
:100CE0005843000038B5031C64331B78012B1AD11C
:100CF0000D4B816E1A68041C531A6C34962B0DD957
:100D00002378051CC118583189786635013329705C
:100D1000826623706530007800F0B8FA23780A2BD9
:100D200001D10023237038BDFC04002010B5041C41
:100D30005A30012901D00A2902D1211C283119E099
:100D400004230A1C9A43022A02D1211C323111E0E9
:100D5000032A02D1211C3C310CE0042901D00829CE
:100D600002D1211C463105E0052901D0092908D10D
:100D7000211C50310A2203F0D7FA6C34002323706F
:100D800004E0211C1E310A2203F0CEFA10BDFFFF41
:100D900010B5041C00F0C0FF002819DD201C143021
:100DA0000C4900F08BFFA28A80231B019A4205D1D7
:100DB000E37D01202377237E63770AE0237D0320F0
:100DC000012B06D1201CA17DFFF7B0FF022000E01F
:100DD000002010BD28320000081CFE2110B5890536
:100DE00002F0C0FB011CFE20800502F027FD011C63
:100DF000FE20800503F030F8011C02F0B3FBFE2159
:100E00008905041C02F064FB002802D0FE20800546
:100E100000E0201C10BDFFFFF7B5027B041C0D1C79
:100E20000092002A2CD0037D002B29D0081C03F04F
:100E3000A9F92669071C311C02F036FB002806D0F0
:100E4000680003F09FF9311C03F006F815E06368B1
:100E5000181C019303F096F9311C02F0FDFF011CF0
:100E6000381C02F035FB00280AD0019A6D00A81A40
:100E700003F088F9311C02F075FB03F063F9051CDF
:100E8000A669281C03F07EF9311C02F0E5FF002161
:100E9000051C02F01DFB2B1C002802D1802212062B
:100EA000AB18181C02F046FB276A0190391C281C5D
:100EB00002F0D2FF264902F0A5FE011C381C02F008
:100EC00051FB009B071C2062002B17D0002102F071
:100ED000FFFA3B1C002802D180221206BB18181C06
:100EE000216902F0E1FA431E98410127404238404F
:100EF000C7B2631DD877301C002F26D1019803F0AC
:100F00009DF9A16802F07EFE011C201CFFF764FF22
:100F1000011C281C02F076FE011C301C02F022FB92
:100F20000026A061311C051C02F0BEFA00280AD17F
:100F30006068013803F026F9061C311C281C02F0F9
:100F4000C7FA002800D0A661A06903F0FBF8FEBD37
:100F5000CDCCCC3EC36A10B50363041CFFF75CFF25
:100F6000236BE062C01A431E98413434207010BDD8
:100F700010B5041C007800F037F9011CA062201C99
:100F8000FFF7E8FF10BD38B5051C0C1C081CFE213E
:100F9000890502F09DFA002807D1201C002102F0EB
:100FA00083FA002803D0002401E0FE24A405AC60ED
:100FB00038BDF7B501938023DB0043608123DB0557
:100FC00003610123037500230025CFB20362431D93
:100FD000041CDD770E1C381C291C009200F088F9D7
:100FE000381C291C00F052F9009B2660201C23733A
:100FF0000199FFF7C8FF201CFEBDFFFFF0B572B6D8
:101000001B4B1A78002A30D01A4A10681A4A166800
:101010001A4A301815681A4A40191468194A0019F2
:101020001168194A401812681849801880B2184A85
:101030004008104380B208601648174909680768DD
:101040001648791806681648891905681548491917
:101050000468154809190068091889B249080A4343
:10106000124992B20A6000221A7062B6F0BDC04600
:10107000F904002038B003403CB0034040B00340C6
:1010800044B0034048B003404CB003402CB0034090
:101090000080FFFF5CB0034058B0034060B00340E5
:1010A00064B0034068B003406CB0034030B003400C
:1010B0001B4B1C4A19781C4B082901D1002102E066
:1010C0000A2903D138211160132206E00C2901D12D
:1010D000342100E03C21116012221A60134B1A786F
:1010E000134B002A01D0002200E001221A60114BAC
:1010F0001A78114B012A01D880220CE0042A01D869
:10110000842208E0082A01D8852204E0102A01D8A8
:10111000862200E087221A60084B01221A7070476D
:10112000E000002008B003400CB00340FB040020A6
:1011300020B00340E100002024B00340F904002067
:1011400008B50C2804D9102800D91020102306E077
:101150000C230A2803D80823984200D90A23094AF5
:10116000D9B2081A1070084A1078834209D0074B88
:1011700011701B78002B02D0054B00221A60FFF77C
:1011800097FF08BDF8040020E0000020F9040020CB
:1011900024B0034010B5114B041C1B78002B01D068
:1011A000FFF72CFF0E4A0023012C02D9042C02D891
:1011B000042313600EE0082C03D8052313600823D2
:1011C00008E0102C03D806231360102302E0072345
:1011D00013602023034A137010BDC046F904002099
:1011E00024B00340E100002070B5031E0C2B0DD984
:1011F000021C0E3AD2B20C2A07D91A1C263A193B05
:101200000020DBB2012A32D800E0131C184AD45C5B
:10121000184B1B78002B01D0FFF7F0FE72B6164B6F
:101220001022610605D51968914319603F231C40BF
:1012300002E019680A431A60104B114D01221C602C
:101240002A7062B61E1C72B633681A0608D50D4B9A
:10125000186800232B7062B60B4B1B78184106E010
:101260002B78002BDBD062B600F0A6FDEBE770BD5B
:1012700080430000F90400200CB0034000B003409C
:10128000FA04002010B00340F804002010B51A281A
:1012900018D80C2358430C4A835810181C7D027A26
:1012A000224205D0002901D01A710BE01A7209E020
:1012B00043681A68002902D003210A4301E0022191
:1012C0008A431A6010BDC0469043000000231A28CC
:1012D0000AD80C235843054A81581018027A0B7C0F
:1012E00013405A1E9341DBB2181C70479043000014
:1012F000F0B51A283DD80C273D1C45431D4A54190A
:101300006368161C012901D0042912D17843325890
:101310003018147D007A20431075A22252001A6002
:101320002022042901D1196814E0196891430A1C8C
:101330001EE0AA58247A107DA0431075002902D01F
:101340008A1E012A12D8802252001A60022903D173
:101350001A6803210A430BE003290AD11A68022103
:101360000A431A601A6801218A4301E00422FF320D
:101370001A60F0BD9043000072B60C4B0C491A681D
:101380000C4B1B68096862B6480104D532219142B2
:10139000894149425B18FA20800043430648821A7B
:1013A00006484243920D98187047C04618E000E086
:1013B00004ED00E0FC0400207FBB00005555010057
:1013C00038B5041CFFF7D8FF051C002C0FD0FFF721
:1013D000D3FF074B401B984206D9013C002C06D096
:1013E000FA239B00ED18F2E700F0E6FCEFE738BDCA
:1013F000E70300001C4B8022D20510B51A60802242
:1014000012061A60194B002018601949194B1A4A24
:10141000196028231360194A194C1360194A136084
:10142000194A1360194A1360194A1360092222608D
:10143000184C2060184C2160184C2360184C236015
:10144000184C2260184C20601848016018490B6045
:1014500018490B60184B1A60FFF72AFEFA20FFF7B5
:10146000AFFF00F08FFB10BD00E100E004800340FF
:10147000FFBF0000088003400C800340148003403D
:10148000008003401C800340248003402C800340E4
:101490003480034004900340089003400C900340C4
:1014A000149003400090034004A0034008A00340B0
:1014B0000CA0034014A0034000A00340F0B50B4F64
:1014C00002223B780A4E1A43D2000A4DB4186060DB
:1014D00028788824002800D0C82409040C43B4507C
:1014E00001225040534028703B70F0BD440500205D
:1014F00000F8FF1F94050020431E10B5052B0FD8E0
:1015000072B6084A99008858002807D044685B00E2
:101510008C50054A01889C5A611A995262B600E0C3
:10152000002010BD2C05002054070020431E002081
:10153000052B09D872B6054A9B009B58002B02D098
:1015400001305B68FAE762B67047C046500500207C
:1015500038B572B60123164A9A18013A1278110763
:101560001CD5144A5C01A5589900002D05D113190A
:1015700008305860104BA3500AE001242143C900F1
:101580008C58002C0AD15318083058600B4B8B50E4
:101590000B4B1A78013A1A7062B608E00133072B38
:1015A000D9D162B6064B00221A7000F05FFB38BD3D
:1015B000D444000000F8FF1F88004000C80040002D
:1015C0008A050020421E10B5052A30D8022380006B
:1015D0001843174BC0001B1872B6164CA05C0328AA
:1015E00009D801F08BFE140216050833022011E021
:1015F000083304200EE01048920014580F4B002CC2
:1016000001D1115001E09858416099500EE003203B
:1016100000E00520A0540A1C08325A6088221807EE
:1016200000D5C822098809040A431A6062B610BDB1
:1016300000F8FF1F1C050020500500206805002051
:10164000F7B5B9480378011CDBB25A0711D5B74A80
:101650001278002A0AD0B6480278D2B2002A05D001
:10166000013AD2B20270002A00D100BEAE4D04226F
:101670002A7008251A1C2A4000D11EE2AD4BAE4C40
:101680001B78DBB29A081E09D200002E00D0A7E119
:10169000A21817685168B806000F01380C2800D945
:1016A0009BE101F035FE3D013D019A019A019A014D
:1016B0009A019A019A0177019A019A019A010D0003
:1016C0000B689E4D49689E4869609E4900271160DD
:1016D0009D4901222B600A709BB2A02107602761FF
:1016E000A761C9008B4200D1F2E015D8822B00D14E
:1016F000AAE007D8802B00D0E6E0944C27706770F2
:101700000227E6E081225200934200D1ABE0904AEA
:10171000934200D1B6E0D7E0882109018B4200D185
:101720008CE008D88B495B18012B00D9CCE06A8883
:10173000A988894BBAE090221201934200D0C3E0FD
:10174000AA787A4B1A70E3191A6A120603D5586AF6
:10175000083800F08BFA0837C02FF4D10026371C68
:101760007E4BF058002805D04168019100F07EFAC8
:101770000198F7E77A4B794AF0507A4B9051F0583C
:10178000002805D04168019100F070FA0198F7E750
:10179000744A754B9051754AF0507B00D052744B8F
:1017A000F85C0238032807D801F0A8FD02040204FF
:1017B000002200E00122DA5501370436062FCFD18E
:1017C0006C4F00233B7001266B4BF2186B4B920061
:1017D000F318013B1B781370180720D500F028FA86
:1017E0007301002805D0E21808305060644AE250C6
:1017F00003E0E0503B7801333B7000F019FA01221E
:10180000B3001343DB00002805D0E2180830506015
:101810005C4AE25003E0E0503B7801333B70B20099
:1018200002211143C9000023635003210A438A4067
:101830000136A350072EC7D11F1C49E03B4B434C38
:101840001B78171C237044E0AB88062B3CD83F4C18
:101850004D499B00277067705B181B7802273B423D
:1018600037D0227035E0AA887F231340062B2BDC6B
:101870006F88002F28D1444A9B009B181A780221B8
:101880008A430DE0AA887F231340062B1CDC6F8857
:10189000002F19D13C489B001B181A7802210A43DB
:1018A0001A7015E01888904204D00C335C68002C44
:1018B000F8D109E058888842F7D1120A032A01D1E9
:1018C000277806E01F8904E02F4B0F221A7024E0CE
:1018D0003C1CEB889F4200D91F1C3E1E082E00D9DD
:1018E0000826201C311CFFF7E9FDA419BF1B03D1FA
:1018F0003D1C082E04D010E00825BD4200D93D1C37
:10190000201C291CFFF7DAFD64197F1B01D1082D6B
:1019100003D10B4D1D4B2C601F8001221C4B5BE043
:10192000084B136059E0C046802007409305002013
:10193000450500209020074000F8FF1F800500208B
:1019400000050020C8000800940500208B05002039
:101950000203000080F9FFFFDC4400002C0500209A
:1019600004050020500500206805002054070020D1
:101970001C0500208A05002030C80110D444000056
:1019800088004000C8004000C020074088050020B3
:1019900094200740644E3768002F13D063480588B1
:1019A0002C1E082C00D90824211C381CFFF786FDAA
:1019B0002D1B5E49ADB20D80002D01D1082C00D148
:1019C0003D1935605A4BA0221988D200914204D1AA
:1019D00000225A709A78574B1A700122564B60E0D9
:1019E000A4186068013E0838F6B22B4036D000F0EB
:1019F0003DF95249B0004258514B002A1BD055685E
:101A00004550111C985D0831616003280BD801F026
:101A100075FC02040608032104E0022102E005210E
:101A200000E0042199558823270700D5C823128890
:101A3000120413433CE0985D032808D801F05EFCD3
:101A400039390204002200E001229A5531E02C408D
:101A5000624262410324A41A9C552AE062880280F3
:101A6000002A20D0374D43804360B3005F59364988
:101A7000002F01D1585101E0CD586860C850334B58
:101A80007600F15A5218F25200F0D2F8002804D031
:101A90000830606020070AD507E02D4B20601A78D7
:101AA00001321A7005E02C4201D02A4B00E02A4B8B
:101AB00023602A4908230B70C3E5012423421ED06A
:101AC0001D4802230370264B264D1A70264B274EC5
:101AD0001D609D60264D1A61DD609A615E60254B38
:101AE0000D251D70244DFF232B700B7011490A70BA
:101AF000224A1370224B9F221A70047013E05AB2CC
:101B0000002A04DA1B4A0D20107080220A7002227B
:101B1000134204D018480478E4B204700A7010220A
:101B2000134200D00A70F7BD000500208805002090
:101B30008005002098200740942007405005002091
:101B40001C0500202C05002004050020540700205F
:101B50008A050020C800400088004000802007401F
:101B6000440500208800080000F8FF1F240500201D
:101B700048050020C0200740882007408C200740EF
:101B80008420074010B501F07DF900221A4B002196
:101B9000D150981808324160C82AF7D1174A8020DE
:101BA0001468C00220431060180A154AC0B21070B1
:101BB000180C144AC0B21070134A1B0E1370134A4B
:101BC000FF231370124A13481370134A1370012233
:101BD00002701248017012490A70124A1168994342
:101BE0000B1C70210B4313600F4B802252041A60B0
:101BF0000E4B10221A7010BD00F8FF1F34800440F5
:101C00009C200740B0200740B420074080200740B8
:101C100088200740942007401020074000210740FB
:101C20008420074018E400E000E100E008210740BC
:101C300038B572B60B4C2568281C01F05DFC1728DE
:101C400002D962B600200CE080231B06C3409D43EE
:101C5000256062B648235843034B181800230360DD
:101C6000436038BDE400002000FAFF1F10B5041CDB
:101C70000E484821201A01F055FB172815D80C4BA7
:101C80001B78002B07D00B4B1B78002B03D0201C9C
:101C9000FFF75EFC09E072B68022074B1206C240D5
:101CA000101C1A681043186062B610BD00FAFF1FBE
:101CB0008A05002093050020E4000020F7B5144FAA
:101CC000061C3A680D1C0192124B1B78002B19D090
:101CD0000220FFF711FC041E09D13B68019A9B1AF0
:101CE000AB4212D8002D11D000F066F8ECE7011CD1
:101CF00008310822301C02F017FB201CFFF7B6FF4A
:101D0000082004E00120404201E000E0281CFEBD64
:101D1000FC04002093050020034B00201B78834225
:101D200001D0024B588870479305002054070020CB
:101D3000F7B5154F051C3A680E1C0192134B012094
:101D40001B78002B1CD0FFF7F1FB022807D93B685A
:101D5000019A9B1AB34215D800F02EF8EEE7FFF770
:101D600067FF041EF3D01426291C321C083002F031
:101D7000DBFA01202680211CFFF724FC301C02E046
:101D8000404200E00020FEBDFC040020930500203E
:101D900038B5049D1C1C401AEB1A5843511A01F027
:101DA0000FFB001938BD08B5FEF762FBFEF7D4FB48
:101DB00000F002F8FAE7FFFF10B50D4C2378002B76
:101DC00015D10123237000F07BFA002801D001F027
:101DD00022F900F0BBFC002801D001F0BAF900F0B4
:101DE00069FF002801D001F052FA0023237010BDD2
:101DF00095050020024B1A6801321A607047C046F0
:101E0000FC04002010B50B4C23685A0301D5FFF7E2
:101E100017FC23685A0501D500F0C4FA23681A0597
:101E200001D500F005FD2368DA04ECD500F0B4FF1D
:101E3000E9E7C0463480044008B5FFF7E3FFFFFF41
:101E4000014B00221A607047008104407047FFFF79
:101E5000EFF31380002821D1EFF31082002A1FD165
:101E6000EFF30583002B0FD0101C0F2B0ED91A1C7B
:101E7000103A92080B490320920003405218834005
:101E80001068D840C0B201E080204000EFF311821A
:101E9000002A05D0824203D2101C01E001204042FA
:101EA0007047C04600E400E0264B80221968D2004B
:101EB0000A431A60244A00231370244A1370244AE8
:101EC0001370244A1370244A1370244B1B78032B7D
:101ED00009D0152B04D0002B08D1214A214B04E056
:101EE0001F4A214B01E0214A214B1A60214B1B78EC
:101EF000042B0BD0052B05D0012B0BD1D122920046
:101F00001D4B06E0D12292001C4B02E091221C4B9B
:101F100092001A601B4BC204D20E1A70C0B200228B
:101F200058709A702C22DA70174BFF22196891436F
:101F30000A1C40210A431A60144B802252011A6085
:101F40007047C04634800440210600209D050020D3
:101F500028060020220600209C050020DE05002027
:101F60001303000040A0044018C004401302000006
:101F700004900440E800002044A004401CC0044039
:101F80000890044000A006400CE400E000E100E0FE
:101F900010B5124B132299789143032202400A4351
:101FA000410701D510210A439A700F220B490240C4
:101FB000042A03D18A79402422438A715A79102154
:101FC0008A43084200D00A435A719A7910218A4301
:101FD000840600D50A439A7110BDC04600A0064091
:101FE00008B5124B1B685A051ED5114B1B78DBB286
:101FF000002B02D0FFF7E0FEF7E70E4A80214901EF
:1020000011600D4A0D49D3700422FF320A600C4959
:102010000A600C4A13700C4A13700C4B1B68002B9F
:1020200002D00B4A12781A7108BDC04634800440B1
:102030009C05002080E100E000A0064040A0044094
:1020400044A00440210600209D05002098050020A2
:10205000DF05002038B5041C0B4B1D78EDB2002DB8
:10206000FAD1201C0121FFF743F9291C201CFFF79E
:102070000DF90C225443054B054AE1581C19116017
:10208000044B227A1A7038BD9C0500209043000052
:10209000240600202006002010B5154A1378984227
:1020A00025D0144909684C0520D5042B09D0052BEF
:1020B00004D0012B08D100210F4B04E000210F4B6D
:1020C00001E00F4B0021196004280BD0052805D032
:1020D00001280BD1D1218900074B06E0D1218900CD
:1020E000064B02E09121064B89001960107010BD6B
:1020F000E80000203480044044A004401CC0044098
:102100000890044010B5144A1378984222D013491D
:1021100009684C051DD5032B09D0152B04D0002BC5
:1021200008D10F490B6005E000210E4B01E00E4B7A
:1021300000211960032809D0152804D0002808D1EF
:102140000A49074B04E00949064B01E00849064BE0
:102150001960107010BDC046DE05002034800440B8
:1021600040A0044018C00440049004401303000041
:102170001302000038B50E4B1A680023510514D520
:102180000C4C1A2810D80C2343430B4A0B4D99587A
:10219000D3181B7A216001212B70FFF7A9F823685F
:1021A0002A781A72012300E02360181C38BDC0464B
:1021B000348004409805002090430000DF05002093
:1021C00000207047F8B5214B071C1B685A053BD50A
:1021D0001F4B1B68002B02D01E4A12781A711E4E2C
:1021E000002334783F220134A2425B415B421C4011
:1021F0001A4D2B78A3421CD1FFF72AFE402813DC8E
:10220000174A13795BB2002BF2DA2B7800210133E5
:102210003F209842494149420B401249C95CDBB218
:10222000C9B2D1712B70E3E7FF28E1DDFFF7C4FDF0
:10223000DEE70C4BFFB21F550B4B01221A70084B07
:10224000E4B2AC223470DA70F8BDC0463480044089
:102250002406002020060020280600202206002058
:1022600000A006409E0500209C05002038B5041CF7
:102270004518AC4204D02078FFF7A4FF0134F8E7FA
:1022800038BDFFFF08B5044B1B78002B02D0FFF7C9
:1022900093FDF8E708BDC0469C050020064B074AA1
:1022A0001B781078DBB2C0B2834201D33F3000E02C
:1022B0000138C01A7047C0462806002022060020B8
:1022C000054B1878054BC0B21B78DBB2984200D2A0
:1022D0004030C01A7047C046210600209D050020EE
:1022E00010B5124B12491A780B78D2B2DBB29A426F
:1022F00019D001333F2400209C424041404203401A
:102300000C48DCB2C05C0C700B49C0B209680029F3
:102310000BD09A4200D24032D31A1A2B05DC074B5D
:102320001B780B7201E00120404210BD2106002005
:102330009D050020E005002098050020DF05002015
:102340000A4B1A780A4B1B78DBB29A420AD0013347
:1023500000223F219942524152421340054AD05C2B
:10236000C0B201E0012040427047C0462106002073
:102370009D050020E0050020064B1A78064BD2B2DE
:102380001A70064B1B68002B02D0054A12781A728D
:102390007047C0469D0500202106002098050020BA
:1023A000DF05002030B5254A1379990612D5244956
:1023B000D4790B78002001333F259D4240414042B3
:1023C00003402048E4B20078834203D01E48C4543E
:1023D000DBB20B70D178194CC9B24BB2002B1ADAB0
:1023E00023795BB2002B16DA184B19481D78037855
:1023F000DBB29D4202D16C23E3700CE00133002478
:102400003F259D42644164422340124CE45CDBB2B0
:10241000E4B2D4710370402319420ED011791942ED
:102420000BD00D4B002119700C4B1B688B4202D056
:102430000B49097819722C23D37030BD00A00640D7
:10244000210600209D050020E00500202806002030
:10245000220600209E0500209C0500202406002066
:1024600020060020164B8022196812010A431A60C8
:10247000144A00231370144A14491370144A137039
:10248000144A1370144A1370144A1160144AD1216B
:1024900089001160134AC104C90EC0B21170507096
:1024A00093702C23D370104B104A19680A40802176
:1024B000C9010A431A600E4B802292011A607047CC
:1024C000348004409C0600203106002013030000E5
:1024D000A40600209D060020300600200CB0044019
:1024E00010B0044000B006400CE400E0FF00FFFF25
:1024F00000E100E010B5124B1322997891430322BA
:1025000002400A43410701D510210A439A700F2265
:102510000B490240042A03D18A79402422438A715C
:102520005A7910218A43084200D00A435A719A7995
:1025300010218A43840600D50A439A7110BDC04613
:1025400000B0064008B5124B1B681A051ED5114B8A
:102550001B78DBB2002B02D0FFF72EFCF7E70E4A08
:102560008021890111600D4A0D49D3700422FF3288
:102570000A600C490A600C4A13700C4A13700C4B29
:102580001B68002B02D00B4A12781A7108BDC04696
:10259000348004403006002080E100E000B00640B6
:1025A0000CB0044010B004409C060020310600200E
:1025B0002C0600205A06002038B5041C0B4B1D7851
:1025C000EDB2002DFAD1201C0121FEF791FE291C4D
:1025D000201CFEF75BFE0C225443054B054AE158D4
:1025E0001C191160044B227A1A7038BD3006002085
:1025F00090430000A00600209B0600207047704713
:1026000038B50E4B1A680023110514D50C4C1A2846
:1026100010D80C2343430B4A0B4D9958D3181B7AFF
:10262000216001212B70FEF763FE23682A781A725D
:10263000012300E02360181C38BDC04634800440EC
:102640002C060020904300005A060020002070470E
:10265000F8B5214B071C1B681A053BD51F4B1B689F
:10266000002B02D01E4A12781A711E4E00233478B5
:1026700027220134A2425B415B421C401A4D2B7859
:10268000A3421CD1FFF7E4FB402813DC174A13795F
:102690005BB2002BF2DA2B7800210133272098421D
:1026A000494149420B401249C95CDBB2C9B2D17100
:1026B0002B70E3E7FF28E1DDFFF77EFBDEE70C4B45
:1026C000FFB21F550B4B01221A70084BE4B2AC222B
:1026D0003470DA70F8BDC04634800440A006002093
:1026E0009B060020A40600209D06002000B00640A6
:1026F000320600203006002038B5041C4518AC42D4
:1027000004D02078FFF7A4FF0134F8E738BDFFFFBD
:1027100008B5044B1B78002B02D0FFF74DFBF8E700
:1027200008BDC04630060020064B074A1B781078CB
:10273000DBB2C0B2834201D3273000E00138C01AB7
:102740007047C046A40600209D060020054B18785F
:10275000054BC0B21B78DBB2984200D24030C01AA1
:102760007047C0469C0600203106002010B5124B71
:1027700012491A780B78D2B2DBB29A4219D00133DF
:102780003F2400209C424041404203400C48DCB2C0
:10279000C05C0C700B49C0B2096800290BD09A428A
:1027A00000D24032D31A1A2B05DC074B1B780B7270
:1027B00001E00120404210BD9C06002031060020AF
:1027C0005B0600202C0600205A0600200A4B1A78CF
:1027D0000A4B1B78DBB29A420AD0013300223F2118
:1027E0009942524152421340054AD05CC0B201E0C6
:1027F000012040427047C0469C0600203106002060
:102800005B060020064B1A78064BD2B21A70064BB4
:102810001B68002B02D0054A12781A727047C04616
:10282000310600209C0600202C0600205A060020BD
:1028300030B5254A1379990612D52449D4790B78F5
:10284000002001333F259D42404140420340204843
:10285000E4B20078834203D01E48C454DBB20B704C
:10286000D178194CC9B24BB2002B1ADA23795BB27A
:10287000002B16DA184B19481D780378DBB29D42FD
:1028800002D16C23E3700CE00133002427259D4224
:10289000644164422340124CE45CDBB2E4B2D47184
:1028A0000370402319420ED0117919420BD00D4B01
:1028B000002119700C4B1B688B4202D00B49097820
:1028C00019722C23D37030BD00B006409C06002046
:1028D000310600205B060020A40600209D06002093
:1028E0003206002030060020A00600209B060020B3
:1028F000204B8022196852010A431A601E4A0023A5
:1029000013701E4A13701E4A13701E4A13701E4A1B
:1029100013701E4B1B78062B04D0072B05D11C4AC5
:102920001C4B01E01A4A1C4B1A601C4B1B78082BED
:1029300005D0142B07D1D1229200194B02E0D122ED
:10294000184B92001A60184BC204D20E1A70C0B213
:10295000002258709A702C22DA70144B144A1968AD
:102960000A408021C9030A431A60124B8022D20117
:102970001A6070473480044018070020AD0600201C
:102980002007002019070020AC060020E9000020E5
:102990001303000008C0044010C00440EA000020F7
:1029A00014C004400CC0044000C006400CE400E029
:1029B000FFFF00FF00E100E010B5124B13229978F1
:1029C0009143032202400A43410701D510210A43E3
:1029D0009A700F220B490240042A03D18A794024BD
:1029E00022438A715A7910218A43084200D00A434F
:1029F0005A719A7910218A43840600D50A439A7144
:102A000010BDC04600C0064008B5124B1B68DA0472
:102A10001ED5114B1B78DBB2002B02D0FFF7CCF98F
:102A2000F7E70E4A8021C90111600D4A0D49D370A4
:102A30000422FF320A600C490A600C4A13700C4AE7
:102A400013700C4B1B68002B02D00B4A12781A71C2
:102A500008BDC04634800440AC06002080E100E0A0
:102A600000C0064008C004400CC004401807002005
:102A7000AD060020A8060020D606002038B5041CAC
:102A80000B4B1D78EDB2002DFAD1201C0121FEF771
:102A90002FFC291C201CFEF7F9FB0C225443054B8C
:102AA000054AE1581C191160044B227A1A7038BD8E
:102AB000AC060020904300001C07002017070020F0
:102AC00010B5104A137898421AD00F490968CC04FF
:102AD00015D5082B04D0142B05D100210B4B01E098
:102AE0000B4B00211960082805D0142807D1D121EB
:102AF0008900064B02E0D121054B89001960107056
:102B000010BDC046EA0000203480044014C00440D8
:102B10000CC0044010B50F4A1378984218D00E49E3
:102B20000968CC0413D5062B04D0072B05D100214E
:102B30000A4B01E00A4B00211960062804D007283F
:102B400005D10849054B01E00649054B1960107095
:102B500010BDC046E90000203480044008C0044095
:102B600010C004401303000038B50E4B1A68002350
:102B7000D10414D50C4C1A2810D80C2343430B4A0B
:102B80000B4D9958D3181B7A216001212B70FEF749
:102B9000AFFB23682A781A72012300E02360181C17
:102BA00038BDC04634800440A80600209043000091
:102BB000D606002000207047F8B5214B071C1B6883
:102BC000DA043BD51F4B1B68002B02D01E4A12783B
:102BD0001A711E4E0023347827220134A2425B4131
:102BE0005B421C401A4D2B78A3421CD1FFF730F9F1
:102BF000402813DC174A13795BB2002BF2DA2B78EA
:102C00000021013327209842494149420B40124993
:102C1000C95CDBB2C9B2D1712B70E3E7FF28E1DDFB
:102C2000FFF7CAF8DEE70C4BFFB21F550B4B012232
:102C30001A70084BE4B2AC223470DA70F8BDC046AA
:102C4000348004401C0700201707002020070020C4
:102C50001907002000C00640AE060020AC06002088
:102C600038B5041C4518AC4204D02078FFF7A4FF07
:102C70000134F8E738BDFFFF08B5044B1B78002B83
:102C800002D0FFF799F8F8E708BDC046AC0600206F
:102C9000064B074A1B781078DBB2C0B2834201D3DF
:102CA000273000E00138C01A7047C04620070020D6
:102CB00019070020054B1878054BC0B21B78DBB212
:102CC000984200D24030C01A7047C0461807002012
:102CD000AD06002010B5124B12491A780B78D2B20B
:102CE000DBB29A4219D001333F2400209C4240417C
:102CF000404203400C48DCB2C05C0C700B49C0B2CF
:102D0000096800290BD09A4200D24032D31A1A2BFC
:102D100005DC074B1B780B7201E00120404210BD1F
:102D200018070020AD060020D7060020A8060020C6
:102D3000D60600200A4B1A780A4B1B78DBB29A425F
:102D40000AD0013300223F2199425241524213409E
:102D5000054AD05CC0B201E0012040427047C04645
:102D600018070020AD060020D7060020064B1A7871
:102D7000064BD2B21A70064B1B68002B02D0054AD4
:102D800012781A727047C046AD060020180700205E
:102D9000A8060020D606002030B52E4A13799906E1
:102DA00024D52D49D4790B78002001333F259D424D
:102DB0004041404203402948E4B20078834203D0B6
:102DC0002748C454D8B208702649086800280DD096
:102DD00025490978C9B28B4201D35B1A01E05B1A1D
:102DE0004033272B02DD214B1B780371D178194C1E
:102DF000C9B24BB2002B1ADA23795BB2002B16DA78
:102E00001B4B19481D780378DBB29D4202D16C231D
:102E1000E3700CE00133002427259D4264416442A5
:102E20002340144CE45CDBB2E4B2D4710370402361
:102E300019420ED0117919420BD00F4B0021197095
:102E40000E4B1B688B4202D00D49097819722C2356
:102E5000D37030BD00C0064018070020AD0600202A
:102E6000D7060020A806002019070020D60600205B
:102E700020070020AE060020AC0600201C07002022
:102E8000170700201FB572B6154B70221A70154A2D
:102E900041211170144A0F21117080221A701A7882
:102EA00052B2002AFBDA114B186862B6104B9842F6
:102EB00001D80A23584301AC211C0A2200F0F6F97C
:102EC0000023E15C0B4A002905D05800101801339B
:102ED00041800A2BF5D101335B0013701FBDC04642
:102EE00000000240070002400600024008000240C5
:102EF0007F9698002A03002008B50368C9B21B68B2
:102F0000984708BD08B50368C9B21B68984708BD53
:102F100008B50368C9B21B68984708BD08B50368BF
:102F2000C9B21B68984708BD08B5044B4808C018CB
:102F300000F0F8F9FEF7B8FF08BDC046C0C62D0086
:102F400010B5064B4808C018141C00F0EBF9FEF74A
:102F5000ABFF201CFFF71CF810BDC046C0C62D00FB
:102F600008B5FFF73DF808BD08B5081CFFF772F873
:102F700008BD08B5081CFFF7C5F808BD08B5081C52
:102F8000FFF78AF808BD08B5081CFFF7F3F8431EE1
:102F90009841C0B208BD08B5081CFFF711F9431EDF
:102FA0009841C0B208BD08B5FFF78AF908BD08B559
:102FB000FFF7C6F908BD08B5FFF792F908BD08B5D7
:102FC000FFF760F908BD08B5FFF7D6F908BD08B5E9
:102FD000FFF764F908BD08B5081CFFF7F3F80120F6
:102FE00008BD08B5081CFFF7EDF8012008BD10B5B5
:102FF000081C141C111CFFF739F9201C10BD38B532
:10300000081C0D1C01F0A1F9041C211C281CFFF751
:103010002DF9201C38BD7047044B00221A711A7319
:10302000FA21034A890099601A607047240700203A
:103030004845000008B50368C9B21B68984708BD39
:1030400008B50368C9B21B68984708BD08B503688E
:10305000C9B21B68984708BD08B50368C9B21B68A8
:10306000984708BD08B5044B4808C01800F05AF945
:10307000FFF7F8F908BDC04660E3160010B5064B2F
:103080004808C018141C00F04DF9FFF7EBF9201C9C
:10309000FFF730FA10BDC04660E3160008B5FFF731
:1030A00051FA08BD08B5081CFFF786FA08BD08B537
:1030B000081CFFF7A4FA08BD08B5081CFFF79EFA24
:1030C00008BD08B5081CFFF79BFA431E9841C0B223
:1030D00008BD08B5081CFFF7B9FA431E9841C0B2F5
:1030E00008BD08B5FFF732FB08BD08B5FFF76EFB5A
:1030F00008BD08B5FFF73AFB08BD08B5FFF708FBA8
:1031000008BD08B5FFF77EFB08BD08B5FFF70CFB4F
:1031100008BD08B5081CFFF79BFA012008BD08B5DB
:10312000081CFFF795FA012008BD10B5081C141CF7
:10313000111CFFF7E1FA201C10BD38B5081C0D1C4E
:1031400001F003F9041C211C281CFFF7D5FA201CF0
:1031500038BD7047044B00221A711A73FA21034AD2
:10316000890099601A60704734070020A845000064
:1031700008B50368C9B21B68984708BD08B503685D
:10318000C9B21B68984708BD08B50368C9B21B6877
:10319000984708BD08B50368C9B21B68984708BDC1
:1031A00008B5044B4808C01800F0BCF8FFF7A0FBB6
:1031B00008BDC04660E3160010B5064B4808C018AD
:1031C000141C00F0AFF8FFF793FB201CFFF7F4FB93
:1031D00010BDC04660E3160008B5FFF715FC08BD3A
:1031E00008B5081CFFF74AFC08BD08B5081CFFF726
:1031F00091FC08BD08B5081CFFF762FC08BD08B5C6
:10320000081CFFF7B1FC431E9841C0B208BD08B5C9
:10321000081CFFF7CFFC431E9841C0B208BD08B59B
:10322000FFF748FD08BD08B5FFF784FD08BD08B5E8
:10323000FFF750FD08BD08B5FFF71EFD08BD08B536
:10324000FFF794FD08BD08B5FFF722FD08BD08B5DE
:10325000081CFFF7B1FC012008BD08B5081CFFF7EA
:10326000ABFC012008BD10B5081C141C111CFFF795
:10327000F7FC201C10BD38B5081C0D1C01F065F8CA
:10328000041C211C281CFFF7EBFC201C38BD7047D8
:10329000044B00221A711A73FA21034A89009960BB
:1032A0001A6070474407002008460000F8B5061C65
:1032B0000D1C171C0024301C391C00F077F809295C
:1032C00001D8303100E03731C9B22955301C391CE2
:1032D00000F028F8061E01D00134ECE72B195870D5
:1032E0002B1C5A1BA24206DA1A78295D19702A553E
:1032F0000133013CF5E7281CF8BDFFFF02B471461D
:1033000049084900095C49008E4402BC7047C04628
:1033100003B47146490840004900095A49008E44E7
:1033200003BC7047002934D00123002210B4884226
:103330002CD301242407A14204D2814202D20901E4
:103340001B01F8E7E400A14204D2814202D2490005
:103350005B00F8E7884201D3401A1A434C08A042A8
:1033600002D3001B5C0822438C08A04202D3001B3E
:103370009C082243CC08A04202D3001BDC08224355
:10338000002803D01B0901D00909E3E7101C10BC79
:103390007047002801D00020C04307B4024802A1B2
:1033A0004018029003BDC046D90000000029F0D0AB
:1033B00003B5FFF7B9FF0EBC4243891A1847C04650
:1033C000002941D010B4041C4C40A4460123002223
:1033D000002900D54942002800D5404288422CD31C
:1033E00001242407A14204D2814202D209011B0117
:1033F000F8E7E400A14204D2814202D249005B0016
:10340000F8E7884201D3401A1A434C08A04202D37D
:10341000001B5C0822438C08A04202D3001B9C08BE
:103420002243CC08A04202D3001BDC082243002820
:1034300003D01B0901D00909E3E7101C6446002CE6
:1034400000D5404210BC7047002806D003DB0020A6
:10345000C043400801E08020000607B4024802A1F2
:103460004018029003BDC046190000000029EBD0AF
:1034700003B5FFF7A7FF0EBC4243891A1847C046A1
:103480007047C0468446081C6146FFE71FB500F040
:103490006DFB002801D40021C8421FBD10B500F00B
:1034A000F3FA4042013010BD10B500F05FFB002878
:1034B00001DB002010BD012010BDC04610B500F09A
:1034C00055FB002801DD002010BD012010BDC046C5
:1034D00010B500F003FB002801DC002010BD012026
:1034E00010BDC04610B500F0F9FA002801DA00203E
:1034F00010BD012010BDC0461C2101231B049842B1
:1035000001D3000C10391B0A984201D3000A083974
:103510001B09984201D30009043902A2105C40182B
:103520007047C046040302020101010100000000CF
:10353000000000009E2110B5C905041CFFF7D2FF52
:10354000002803D1201C00F0FDFD10BD9E21C905FF
:10355000201C00F081FC00F0F5FD80231B06C01844
:10356000F3E7C046F8B543024400C50F4E024800D9
:10357000240E2A1C9B09000EC90FB6098D425BD090
:10358000221A002A00DC89E000281DD1002E00D07C
:1035900075E0580704D00F221A40042A00D00433E3
:1035A0008021C90419402A1C00293AD00134FF2C7B
:1035B00000D17FE09B015B0A5B02E4B2E405580A9C
:1035C000D20720431043F8BDFF2CE2D08021C9046C
:1035D0000E431B2A00DD2DE1311C2020D140821A30
:1035E0009640721E96410E439B1B5801D1D59B01FC
:1035F0009F09381CFFF780FF421F974094425BDC15
:10360000141B1F231B1B3A1C9F40611C3B1CCA4000
:103610005F1EBB4113430024BBE7131EB9D1002337
:103620000022DB08FF2C04D1002B43D08020C003F4
:1036300003435B025B0ABFE7211A002940DD002833
:1036400023D0FF2CA5D08020C00406431B2900DD19
:10365000EEE0301C2027C840791A8E40711E8E4142
:1036600006439B19590100D493E70134FF2C55D030
:10367000714901221A400B405B08134389E7013A64
:10368000002AB1D0FF2CA4D183E7002E00D180E71F
:1036900001390029E5D0FF2CD8D17AE7002A1BD1C7
:1036A000621CD2B2012A4BDD9F1B7A0123D5F71A87
:1036B0000D1C9EE700237FE75F4BA41A3B4068E7A1
:1036C000002946D1611CC8B2012829DDFF2924D078
:1036D000F3185B080C1C5CE7002C13D0FF2818D0F3
:1036E0008024E404524223431B2A4DDD0123F31AB4
:1036F000041C0D1C79E7002F00D07AE7002300227C
:1037000000248EE7002B3BD0D243002AEFD0FF28C5
:10371000EAD1331CFF240D1C3BE7FF24002380E784
:10372000002C5CD1002B00D180E0002E00D130E7CE
:103730009B19580100D42CE73F4A0124134028E785
:10374000002C15D1002B40D1002E63D0331C0D1C52
:103750001FE7002C21D1002B54D0C943002904D0ED
:10376000FF284CD01B2958DD01239B19041C79E745
:10377000002B19D1002E48D0331C0D1CFF2408E764
:10378000331C041C0D1C04E71C1C2025D440AA1A61
:1037900093405A1E93412343A9E7FF282FD080244A
:1037A000E40449422343DDE7FF24002E00D1F0E684
:1037B0008022DB08D203134204D0F608164201D15E
:1037C000331C0D1CDB00FF24E3E6002E00D1E0E6F5
:1037D0009A1B500100D420E7F31A0D1CD9E6002BE8
:1037E0000DD0FF24002E00D1D3E68022DB08D203C7
:1037F0001342E7D0F6081642E4D1331CE2E7331C4B
:10380000FF24C6E6331C041CC3E6802300229B046D
:10381000FF2406E7231C002203E71C1C2027CC40C2
:10382000791A8B40591E8B4123439EE7331CB0E627
:10383000012616E70126D7E6FFFFFFFBF0B55F463E
:1038400056464D464446F0B446024500C00F85B08A
:103850000F1C760A2D0E804641D0FF2D26D08024E5
:10386000240400212643F6007F3D89468B46F90F4C
:103870007C027800640A000E00918A463CD0FF2842
:1038800034D080231B041C430023E4007F380193C1
:10389000009F4346019A7B4049469C4611430F29AD
:1038A00000D971E0764F89007F58BF46002E3ED187
:1038B0000822022391469B46D9E75A46341CC24649
:1038C00001920199022937D0032900D1CFE00129C3
:1038D00000D0ABE053460B400022002632E0002E21
:1038E00019D10421012289469346C0E7221C531EA8
:1038F0009A4102320192CBE701270197002CC7D0F1
:10390000201CFFF7F9FD431F9C4076235B420021FA
:10391000181A0191BCE7301CFFF7EEFD7625431F16
:103920009E406D4200232D1A99469B469FE70C232B
:10393000032199468B469AE7D446012367463B40CC
:10394000FF2200267602D205700ADB0710431843D7
:1039500005B03CBC90469946A246AB46F0BD8026D9
:103960000023F603FF22EDE700220026EAE780208D
:10397000C00306423BD0044239D1061C26437602DE
:10398000760A009BFF22DDE7281A03907601640186
:10399000A64239D3361B1A2201230120311C5B00B9
:1039A0007600002901DBB44201D8361B0343013AFB
:1039B000002AF3DC741EA641341C1C43039A7F3298
:1039C000002A27DD630704D00F232340042B00D0F7
:1039D0000434270103D52B4B039A1C408032FE2A66
:1039E0000BDD012361460B40FF220026AAE70643B8
:1039F0007602760A4346FF22A4E7A4010123674624
:103A0000660AD2B23B409DE7039F1B22013F03970A
:103A10000023C2E77E23039F5B42DB1B1B2B07DDDA
:103A2000012361460B40002200268BE7D446C5E700
:103A3000221CDA40039B9E339C40231C5C1EA34146
:103A400013435A0704D00F221A40042A00D004332B
:103A50005F0105D5012361460B400122002671E775
:103A60009E01624601231340760A00226AE78026FF
:103A7000F60326437602760A5346FF2262E7C046E3
:103A800060460000FFFFFFF74A02430270B55C0A80
:103A9000550A43004A001B0EC60F120EC90FFF2B1A
:103AA00005D0FF2A08D0012093420BD070BD012021
:103AB000002CFBD1FF2AF6D10120002DF6D10120E8
:103AC0009342F3D1AC42F1D18E4205D0002BEDD11F
:103AD000201C441EA041E9E70020E7E74A02430218
:103AE000F0B55C0A550A43004A001B0EC60F120EC1
:103AF000C90FFF2B31D0FF2A34D0002B16D16042E2
:103B000060418446002A14D0002820D18E4217D16B
:103B1000934215DC04DBAC4212D80020AC4212D236
:103B2000704270414042012318430CE0002AEDD15D
:103B300094466F426F416046002805D1002FE5D0C2
:103B4000704201231843F0BD0020002FFBD14842F2
:103B50004841404201231843F5E7002CCBD0022016
:103B60004042F0E7002DC8D0F9E7C0464A024302C0
:103B7000F0B55C0A550A43004A001B0EC60F120E30
:103B8000C90FFF2B27D0FF2A29D0002B10D0002AE5
:103B900015D194466F426F416046002815D0002031
:103BA000002F04D148424841404201231843F0BD50
:103BB000604260418446002AECD00028F2D18E4257
:103BC00011D0704201231843F1E7002FF7D0704263
:103BD00001231843EBE70220002CE8D1D3E70220B1
:103BE000002DE4D1D1E79342EBDC04DBAC42E8D812
:103BF0000020AC42DBD270427041404201231843A6
:103C0000D5E7C046F0B55F4656464D464446F0B44B
:103C10004402460083B00F1C640A360EC50F002E06
:103C200041D0FF2E22D080231B0400201C43E4003F
:103C30007F3E82468046391C4B007F02C90F7F0AB7
:103C40001B0E8B463BD0FF2B34D08022120417432F
:103C5000FF007F3B00215A466A40019252460A43C8
:103C60000F2A63D87A48920082589746002C3FD199
:103C70000822022392469846DDE701954046022835
:103C80002AD1019A01251540FF2300246402DB0597
:103C9000600AED071843284303B03CBC90469946A0
:103CA000A246AB46F0BD002C27D10420012282465B
:103CB0009046C0E7391C4A1E91410231CBE70121F1
:103CC000002FC8D0381CFFF717FC431F9F407623F6
:103CD0005B421B1A0021BEE7032800D1AEE0012899
:103CE0004FD1019842461040C5B200230024CDE7D1
:103CF0000C2303209A4680469DE7201CFFF7FCFB1F
:103D00007626431F9C4076420023361A9A469846F0
:103D100091E780240025E403FF23B7E75B463C1CC2
:103D200001938846AAE73C1C8846A7E7250C240493
:103D30003A0C240C3F04F6183F0C211C231C794339
:103D400053436F435543FB180A0C9B18B1469F42DF
:103D500002D980225202AD1809041A04090C521823
:103D600094011B0C611E8C41920EED181443AD01A1
:103D70002C43230105D5012263080120144081440E
:103D80001C434B467F33002B2DDD600704D00F22F0
:103D90002240042A00D00434220103D52D4B1C40BC
:103DA0004B468033FE2B17DD019B01251D4000246F
:103DB000FF236BE78020C003044208D0074206D1EE
:103DC000041C3C436402640A5D46FF235EE704432F
:103DD0006402640AFF2359E70198A4010125640ADB
:103DE000DBB2054052E77E235B424A469B1A1B2BFF
:103DF00005DD019B01251D400024002346E7221C10
:103E0000DA404B469E339C40231C5C1EA341134367
:103E1000580704D00F221A40042A00D004335A0154
:103E200005D5019B01251D40002401232EE70198A3
:103E30009C010125640A0540002327E78027FF0332
:103E4000019B3C43640201251D40640AFF231DE7DA
:103E5000A0460000FFFFFFF7F8B5C20F4302440081
:103E60004D024800240E161C9B09000EC90FAD0917
:103E7000FF2800D183E0012779408A425CD0221AD2
:103E8000002A00DC8EE000281ED1002D00D07AE050
:103E9000580704D00F221A40042A00D0043380218E
:103EA000C90401221940324000293AD00134FF2CC4
:103EB00000D183E09B015B0A5B02E4B2E405580A8F
:103EC000D20720431043F8BDFF2CE1D08021C90464
:103ED0000D431B2A00DD31E1291C2020D140821A2C
:103EE00095406A1E95410D435B1B5801D0D59B013F
:103EF0009F09381CFFF700FB421F974094425FDC8C
:103F0000141B1F231B1B3A1C9F40611C3B1CCA40F7
:103F10005F1EBB4113430024BAE7131EB8D1002330
:103F20000022DB08FF2C04D1002B47D08020C003E7
:103F300003435B025B0ABFE7211A002944DD002826
:103F400027D0FF2CA4D08020C00405431B2900DD0E
:103F5000F2E0281C2027C840791A8D40691E8D4147
:103F600005435B19590100D492E70134FF2C59D065
:103F7000734901221A400B405B08134388E7002D68
:103F800000D07AE777E7013A002AADD0FF2CA0D124
:103F90007EE7002D00D17BE701390029E1D0FF2C1D
:103FA000D4D175E7002A1BD1621CD2B2012A4BDDA5
:103FB0005F1B7A0123D5EF1A0E1C9AE700237BE7DB
:103FC0005F4BA41A3B4063E7002946D1611CC8B28D
:103FD000012829DDFF2924D0EB185B080C1C57E7CA
:103FE000002C13D0FF2818D08024E404524223432D
:103FF0001B2A4DDD0123EB1A041C0E1C75E7002F54
:1040000000D076E70023002200248AE7002B3BD073
:10401000D243002AEFD0FF28EAD12B1CFF240E1C2C
:1040200036E7FF2400237CE7002C5CD1002B00D175
:1040300080E0002D00D12BE75B19580100D427E761
:104040003F4A0124134023E7002C15D1002B40D117
:10405000002D63D02B1C0E1C1AE7002C21D1002B45
:1040600054D0C943002904D0FF284CD01B2958DD67
:1040700001235B19041C75E7002B19D1002D48D0D2
:104080002B1C0E1CFF2403E72B1C041C0E1CFFE63C
:104090001C1C2026D440B21A93405A1E934123433D
:1040A000A9E7FF282FD08024E40449422343DDE719
:1040B000FF24002D00D1EBE68022DB08D20313425F
:1040C00004D0ED08154201D12B1C0E1CDB00FF248F
:1040D000DEE6002D00D1DBE65A1B500100D41CE7C0
:1040E000EB1A0E1CD4E6002B0DD0FF24002D00D1BE
:1040F000CEE68022DB08D2031342E7D0ED0815425A
:10410000E4D12B1CE2E72B1CFF24C1E62B1C041C72
:10411000BEE6802300229B04FF2402E7231C00222A
:10412000FFE61C1C2027CC40791A8B40591E8B417E
:1041300023439EE72B1CABE6012512E70125D3E6BE
:10414000FFFFFFFB4302590A4300C20F1B0E002072
:104150007E2B0DDD9D2B0CDC802000040143952B74
:104160000ADC9620C31AD9404842002A00D1081C14
:104170007047034BD018FBE7963B9940F4E7C046E5
:10418000FFFFFF7F70B5041E3CD0C60F00D0444235
:10419000201CFFF7B1F99E23251C1B1A962B0CDC63
:1041A000083884406402640ADBB2321C6402DB0516
:1041B000600AD2071843104370BD992B0ADD05220F
:1041C000121A211CD1400A1C011C1B318D40691E92
:1041D0008D411543052801DD421F9540164C2C40AA
:1041E0006A0704D00F221540042D00D00434610169
:1041F0000CD59F23181AFF281AD0A401640AC3B251
:10420000321CD3E7002200230024CFE7E408FF2B71
:1042100004D06402640ADBB2321CC7E7002C04D06D
:104220008020C00304436402640A321CFF23BDE7FC
:10423000321CFF230024B9E7FFFFFFFB10B5041E6B
:1042400033D0FFF759F99E231B1A962B09DC083847
:1042500084406402640ADBB26402DB05600A18432E
:1042600010BD992B0ADD0522121A211CD1400A1C0F
:10427000011C1B318C40611E8C411443052801DD5B
:10428000421F9440144A2240610704D00F210C4081
:10429000042C00D0043251010AD59F23181AFF289C
:1042A00016D09401640AC3B2D6E700230024D3E7F2
:1042B000D208FF2B03D05402640ADBB2CCE7002AF9
:1042C00006D08024E40314436402640AFF23C3E796
:1042D000FF230024C0E7C046FFFFFFFB70B50E4B75
:1042E0000E4D0024ED1AAD101E1CAC4204D0A300EC
:1042F000F35898470134F8E700F0F2F9084B094DFC
:104300000024ED1AAD101E1CAC4204D0A300F358DB
:1043100098470134F8E770BDEC460000EC46000019
:10432000EC4600000047000010B50023934203D084
:10433000CC5CC4540133F9E710BD031C82189342CE
:1043400002D019700133FAE770470023C25C0133D1
:10435000002AFBD1581E7047010001000100010036
:104360000100010001000000000000000100010048
:104370000100000000000100010001000100000038
:10438000050E08090D0C06070F0B0044171A1BFF3A
:10439000420000F840A0044001000000420000F884
:1043A00044A0044002000000C00000F800C0044027
:1043B00001000000000000F804900440020000002A
:1043C000000000F80890044004000000C00000F85D
:1043D0001CC0044080000000C00000F810C0044071
:1043E00010000000C00000F808C0044004000000F5
:1043F000C00000F80CC0044008000000800000F875
:104400000CB0044008000000800000F810B0044028
:1044100010000000800000F818B0044040000000C8
:10442000800000F81CB0044080000000800000F80C
:1044300014B0044020000000C00000F804C0044094
:1044400002000000800000F800B0044001000000FD
:10445000400000F800A0044001000000400000F807
:1044600004A0044002000000400000F80CA004403A
:1044700008000000400000F808A00440040000000C
:10448000C00000F814C0044020000000C00000F884
:1044900018C0044040000000800000F804B0044050
:1044A00002000000800000F808B004400400000092
:1044B000020100F850D0044010000000020100F892
:1044C00054D0044020000000030100F878D00440DC
:1044D00040000000151915191D15FFFF000100000F
:1044E000EB00002012000000000200001401002078
:1044F00099000000000300002603002000000000D7
:1045000001030904FE00002000000000020309046A
:104510001003002000000000030309042A03002008
:104520000000000004030904AE01002000000000A8
:10453000000000000000000000000000FFFFFFFF7F
:104540000000000000000000D72F0000EF2F000047
:10455000A72F0000B72F0000AF2F0000BF2F0000D3
:10456000292F0000412F0000612F0000692F00005B
:10457000732F00007D2F0000872F0000972F000071
:10458000C72F0000CF2F0000F92E0000052F0000DC
:10459000112F00001D2F0000FF2F0000E32F00004F
:1045A0000000000000000000133100002B3100006B
:1045B000E3300000F3300000EB300000FB3000007F
:1045C000653000007D3000009D300000A530000007
:1045D000AF300000B9300000C3300000D33000001D
:1045E000033100000B310000353000004130000085
:1045F0004D300000593000003B3100001F310000F9
:1046000000000000000000004F3200006732000090
:104610001F3200002F320000273200003732000026
:10462000A1310000B9310000D9310000E1310000B2
:10463000EB310000F5310000FF3100000F320000C7
:104640003F32000047320000713100007D31000030
:104650008931000095310000773200005B320000A4
:10466000883900003A39000068390000C23800007B
:10467000683900005E39000068390000C238000067
:104680003A3900003A3900005E390000C2380000B3
:10469000BA380000BA380000BA3800006E3900009D
:1046A0002C3D0000263D0000263D00001C3D000082
:1046B0007C3C00007C3C0000123D00001C3D0000E2
:1046C0007C3C0000123D00007C3C00001C3D0000D2
:1046D0007A3C00007A3C00007A3C0000B43D0000C7
:1046E000F8B5C046F8BC08BC9E46704739040000C7
:1046F000990A000019300000553100009132000085
:1047000001000000DC050000DC050000DC05000005
:10471000DC050000F401000001000000CA080000F0
:104720000A040000FFFFFFFF01070812010002FF5B
:10473000FFFF085E048E021401010203010016034C
:10474000A9C24D006900630072006F0073006F0022
:104750006600740009029900040100A0FA0904002F
:104760000002FF5D010011210001012581140000FC
:10477000000013020800000705810320000407055C
:1047800002032000080904010004FF5D03001B214F
:104790000001010183400104201685000000000093
:1047A000001605000000000000070583032000023A
:1047B00007050403200004070585032000400705C2
:1047C00005032000100904020001FF5D0200092119
:1047D0000001012286070007058603200010090456
:1047E000030000FFFD130406410001010300B203B2
:1047F00058000000620000006F0000007800000018
:10480000200000005300000065000000630000006D
:1048100075000000720000006900000074000000D4
:1048200079000000200000004D000000650000003D
:1048300074000000680000006F00000064000000C9
:1048400020000000330000002C00000020000000C9
:1048500056000000650000007200000073000000B8
:10486000690000006F0000006E00000020000000E2
:10487000310000002E000000300000003000000079
:104880002C00000020000000A90000002000000013
:104890003200000030000000300000003500000051
:1048A000200000004D0000006900000063000000CF
:1048B000720000006F000000730000006F00000035
:1048C00066000000740000002000000043000000AB
:1048D0006F00000072000000700000006F00000018
:1048E0007200000061000000740000006900000018
:1048F0006F0000006E0000002E000000200000008D
:10490000410000006C0000006C000000200000006E
:1049100072000000690000006700000068000000ED
:10492000740000007300000020000000720000000E
:1049300065000000730000006500000072000000C8
:104940007600000065000000640000002E000000FA
:10495000160343006F006E00740072006F006C005D
:104960006C0065007200040309040C0300000000E1
:104970000000000000000000000000000000000037
:00000001FF
